:100000000C94832F0C94A02F0C94A02F0C94A02F51
:100010000C94A02F0C94253D0C94A02F0C94A02F91
:100020000C94A02F0C94A02F0C94A02F0C94A02F14
:100030000C94A02F0C94A02F0C94A02F0C94A02F04
:100040000C94A02F0C94A02F0C94A02F0C94A02FF4
:100050000C94A02F82817D81847F7B878A737A9123
:100060007F6F858A767D88777B8A7A748A897481A6
:100070008A807A7B898178827F80817A82817E7B87
:1000800080867C827F808277887F758B7E72848970
:10009000797B897D828079897A7585837D7A88826A
:1000A00076817B87836E888F7F76808F7975817D5F
:1000B000827977847C7E81718194756D958E6B7F5A
:1000C000927A7585827B7586946778A376688A852F
:1000D00073708288807E80877D818070908A67843B
:1000E000937C787E787D7E6E81907A7A8888788716
:1000F000916E79967F6C85967970838A7D767C7D0A
:10010000837E7781818A7F6F8887777A838D7A7201
:100110008A877B7783857D7E7B89867681838083D2
:10012000777F92836675967F69828C8380737C99D2
:1001300088617D9F816E7A848D776183A37E5D84E3
:10014000977E7271879C7663909C7A6B7F92856EA6
:10015000718A8F786C788E8867739386787D7F88B4
:100160008B79788F9184737797946B6D9599766E70
:1001700086988569729495686083876959667C7AE8
:100180005C5E82886F6E8298928095AFA59CA7ACCA
:10019000AEA89E9DA1988176766B544648463C3C1D
:1001A0003F434E575B687C868998A9ADADB3C3CBFE
:1001B000CACEC7B5B1A48B7F7A684F48473A2F3A69
:1001C0003E3C4B5A616F82837F868A878F989AAABA
:1001D000BBC3CED7D2C6BDAB9D9584664E3C291F0E
:1001E0001F27282D3B50677B8483888F92959EA57F
:1001F000B1C4D7E7E1D1C5BAABA295785D48322248
:10020000201C18213346596E7A7F848689939C9BE3
:10021000A6BCD4E8EEE0CFBEAAA1A1916A4A3123E0
:100220002429252A34394C6E817F807A767F8D97F8
:10023000A9BCCCE1E4E2D5BCA7A09D896E4F3222D7
:1002400028323E453E3D50697B8C8B7F767986A275
:10025000BDC9D4CDC4C3BBABA1967F69584C434044
:1002600040474C484B54616F7E818082838DA2BD94
:10027000D1D8C9C0B39E94948E78624E46414957F6
:1002800060584F4F53637A867F7C787D93B6D8E36E
:10029000D3C0B29D93979782644A3F3B43566464B0
:1002A0005B59535D73858585827B7F95BDDCD8CA9C
:1002B000BF9D878B98978162422D2C446271746D2B
:1002C0005853677D8A929385787D99BBD0CEC9B506
:1002D00097898A939182653F282C354F6E7B716197
:1002E0005C62778B9DA0988A8691ACC4CAC8B99C81
:1002F0008682808280715238313146657C817B6B89
:100300006265778D9A9D968B8996A6BDC7BFAB9681
:1003100086797579766455443D44566B7C86837640
:100320006D7074818B9392919498A8B6BBB6AB9D77
:1003300086777671645E544B4A55616E7C827E7816
:100340007875767C8385868A8F94A0AEB4B4AEA38C
:100350009283796F65605B575C656E757F847F7B88
:100360007A75706D68696C727E8A99A3A7ADAEAA22
:10037000A39A93887E7569605B5B6573838B8E8CB3
:10038000827B7673757777746D69696B7583929EDE
:10039000A3A19A90878082878787827A70696A6F23
:1003A000767E82878886847F7D7D7D8083827B7454
:1003B000716C707B848C8F8F89828282878E918F03
:1003C00085786B626570808F95938A7E7572778170
:1003D000898B867D736D6F757D858787837B75714E
:1003E00071757C84898C8C888684868A8E93918AA8
:1003F00080756E6E75818B908C80756C6B6F78805C
:1004000084817B77777B848D93918A8076706D6E03
:1004100072777B7F83888B8E8F8F8F8E8C88827C88
:100420007672737980878B8A857D767374787C7D0C
:100430007C7875767B83898D8D88827B7776777AD9
:100440007E8284868686868787868583807D7A7786
:1004500076777B818586837E7A77777A7D808080C8
:100460007F80818487898A8885817D7A7A7B7D7E79
:100470007F7F7F7E7D7D7D7D7E7E7E7D7B7B7C7EA6
:1004800080828384838281818181808080807F805B
:1004900081828281807D7B7B7B7C7C7C7D7E7F8179
:1004A0008283838382818180808181818180807F3A
:1004B0007F7E7E7E7D7D7D7E7F7F7F7F7F80818151
:1004C0008281807F7F7F808080807F7E7E7F808131
:1004D00081817F7E7D7D7E7F7F80807F7F80818325
:1004E00083838281808181828281807F7E7E7E7E05
:1004F0007D7C7A797A7B7D7E7F7F7F7F8081818220
:100500008383838383848484848382818180807FC6
:100510007F7D7C7A7A7A7A7A7A7A7B7B7B7C7D7E25
:100520007F8081828384848585868686878685838D
:10053000817F7E7E7E7E7D7C7B7A79797979797AFE
:100540007A7B7C7D7F808283848483838385868697
:10055000858482818080807F7E7D7D7C7C7B7A7AB1
:100560007A7B7D7E7F808081818182838485858383
:10057000828181818181807F7E7D7D7D7C7C7B7B92
:100580007B7C7D7E7F80818180808181838383826B
:10059000807F80828484817E7C7C7E8181807D7A64
:1005A000797B7E80828382807E7C7B777C85878A54
:1005B00089807A75757D8389898079767B807E8351
:1005C00081767B86898A857D72717F8D98968C76FF
:1005D0006A6C6974868989877C746C677385919C61
:1005E0009D8B776B69798B93979683736963708121
:1005F000888F8977787F7F83817271788097A497BD
:1006000085695462778CA0957C74696E898B8C990E
:1006100089868B7C7C6E5963708499998C786A6A20
:100620007F999C9B937B7272767F7C73767C838CA4
:100630008D786763678097999D967D6D70778392BB
:100640009A988D7E7069696970859188847E6D6BDA
:10065000797D7E8B8A7F83817175837E829393926D
:10066000978D808283848989827D7D7B70655B57CD
:10067000677B7C736E5A57758597AAA39399A9AD2A
:10068000B4BFA88B8785817D72615A5F605B5751CB
:10069000475369726E6A666B7B8897A7B2B1ADBD2E
:1006A000CBC5C3B6977E756F6B695B464350555B90
:1006B000686E707B837C7470696A706E70767D8AF8
:1006C0009FB8CCD5D8D3C3AE9D91826A594A3B38E6
:1006D0003F4751606C737F867F7E7E71656A6A6C6E
:1006E0007A7F96AFB2C8CFC8C7B6ABA08B78635B32
:1006F0004E41474D555F69757D86888D8E776C6A52
:100700006464646F747581919FAAB6BCBCBBAFA7CB
:10071000A494897D706355524F4F5B626771726B11
:100720006965626973747A8380828B98A9B8C5D130
:10073000DAC5B1A7908276665E4F413A4654546757
:100740007673797C7876726C6C7070747A7B85972E
:10075000ABC1CDDBE8D5BBAC8E776B5C52483A348D
:10076000475B5D6B7C7C7F807B766A5A595F5D62FC
:10077000707E8CA4BDD2E4EBF1DCBEAC8470614B26
:10078000463E36354C646879838288847E77644D32
:100790004750525D6F7E95B1CBE1EAEDEED6B99F41
:1007A000786C5B4A49403838526A6D797C818B8518
:1007B0007B6D60504F5D5F6876849DB0C3D0D3DAA7
:1007C000E3CFAF98796C6658534E474754686C6DC9
:1007D000717885837A71645A596976777E88929E9A
:1007E000A1ABB6B8C0C4B69D8A7E787B7365625BE8
:1007F000595D61636671787F8377717166656E702C
:10080000767D787B818599B0BABDCDC8A79E93834C
:100810008373655D554E4E5E667280829195867BD0
:100820006D5E4E4C565F69696E8195B4D2E2E5E229
:10083000D0A898765D58464C504C4F698B939A954A
:1008400095A28D7158412A223E586D747A9EC3DB61
:10085000E6E3E0E5BB8F7C5645343D595A5971A417
:10086000B2A08C7F8A82635348311B305978807FD5
:10087000A3D2E7DFD4D6DEA97A6B5044364B6B693E
:100880006580B3BEA179616762595E563B2B446DAA
:10089000827C799ECEE1DCD5DFC479604D423A425C
:1008A0006F7F7C84ACC2AF865A4D494962705C3C14
:1008B00036587C807380A6D0DED9DDDF98554B3862
:1008C000373958869099B0CDC59F704A3F3C4C6CE3
:1008D0006D533F49677A77788CADD0DDD8DECD781F
:1008E000463A2B3B4E78999EACC5D8C2975F3B38B1
:1008F000415F796A4C3B47687A7A7E8EADD3DDD70B
:10090000E0B458392B2D466091A4A5B7CFD7BB8949
:100910005038384E76846B4C3B4866767D828DAE7F
:10092000D6E0DBDD9F482E22314D6C9AA3A0AEC6E7
:10093000CDB47E4A373B5E8C96744C3A47647783DD
:10094000858AA6D3E4DFD994462F2437547396952D
:1009500092A4BAC2AD7A4C3D47729D9D784C364305
:10096000617A88878CA5CCDFD9D394473331415A3B
:10097000799489808EAAB9A8805B4A5177A0A17822
:10098000483141617F8E8E90A0C2D3CAC798524130
:10099000464B5D74897F6F7EA0B5AF916A555976DD
:1009A000979B76482E3C5F7B8D9297A2BDCCC1C0B1
:1009B000A8684D534D566D88846B708BA4A99B7DA0
:1009C00066627794997742212B567C959D9E9EACCA
:1009D000C3C6C0B898655B55495770857668758FF2
:1009E0009E9D90786D70889A8853272039688EA3D1
:1009F000A8A4A4B2BEC3BCBC9F6D634F424D6B7D27
:100A00006C667B9AA39D8B746A728A967B422123C3
:100A100046789DAEB0A7A3AAB3BCC0C7A2705D467E
:100A20003B4A6D79676784A4A696806B67788D9042
:100A30006A341B2A5988A6B0B0A5A4AAB2BBC2C604
:100A40009B6D5B464054757C686785A4A28C766676
:100A500067798B8D6735243A63889EA7A8A2A5ADD8
:100A6000B5BBC5C79A6E5E4E48587279686582A557
:100A7000A186756D6F7982896F4331455D6F7E8F79
:100A80009C9C9FA8B3B9C4D2B57F69615859646D65
:100A900067617398A38A7B7F82858689825F4145DF
:100AA0004D4C556B848F919AAAB2B5C5CFAE8A834F
:100AB0007B6D66646768646D82867A7C8A939592A2
:100AC00093917A5A4C4B4B515C657075798897A11C
:100AD000A8B5B8B0B3AB958B897C73736B65696847
:100AE00067737B7C7F86887F71666666646A7170D7
:100AF0006E7279848F96A7B9B7B5B5A5978D7A72BE
:100B000076685A61646068757D8387888A857A759E
:100B1000736C6966605C5D5F6C8293A8C3C8C1C476
:100B2000BBA69B8E7B776A51515C565567747A825F
:100B3000868B8E857F7F776C64595255576077928C
:100B4000A8C0CFC7BEBCAE9E9889777160505A636B
:100B50005B606E74767D838B8F85807F7260595366
:100B600051596472899CAABFCBBDB7B8A699988722
:100B70007775655562695A5964676A76838F938879
:100B800081807365625D5B666F7687949EB4C4B73F
:100B9000AFB5A594988F7E7B6A575E62504F5C5EBE
:100BA00066798893958D898980726D6A63636B72AB
:100BB0007B8896A9BAB5ABB4AA94969682776C59FD
:100BC000575B4E49596065768892979591918E82D0
:100BD00077726960656D727E8E9EB1B5A9AEAF9871
:100BE0009296816F6A594C5556515E696A788C9617
:100BF0009B9E9C9A968C80706259555B6774859712
:100C0000A8B7B8AFAD9E8D918864544C3E4A6068D9
:100C10006D757E8D9EABAFAA9B8C847E715B473DCC
:100C2000485F708295B1D2E1E1BB886A4B44535171
:100C30004B585E688B9A8D8D9092A5B2AB9E897150
:100C400068645B564F48506D899399A8C7DEDDC133
:100C50007D443027385E7282979D968F7E707884AF
:100C600090A4B0AA9A79574B515A626262708C9FD5
:100C70009E99A8C3D2C88E4125283560848D9AA735
:100C80009F917F64678396A5B1A9967B59484E5A78
:100C900069746E6C7A89939398BBD8D7BA6E271A09
:100CA000223D7497A0AAA58C7863587396A8B5B90D
:100CB000AA9169463F4C6476706D747A87918E9BD9
:100CC000C3DFE2BD5B1612194284A4AEB19C816EF3
:100CD000545781A3B5BEB39E81553C425168828072
:100CE000767C7E828C8B95BAD5D4B3661D11204755
:100CF00086AEB8B79D7860525B83A9BCC0B09679C8
:100D00005238405269899083807C7F87858AA6C14A
:100D1000CABC7F301725427DACB9B59B755C515C70
:100D200086AEC4C8B291745134374F698DA297868C
:100D3000797578787C8EA9BEC0A86A2B203458912A
:100D4000BBC7B990644B4E6F9BB4BCB098846E4ADD
:100D5000343F6086A8AA8C7267676D727787A2BCE1
:100D6000C6BB8140313A5084B4C8B98D614B5479C7
:100D70009EADAFA39389754F3A425F87A49E836A65
:100D80005C62707A8292AEC4CAC383362A344886C3
:100D9000BDCFBF986C4D4E69879CABA6988D77519F
:100DA0003D3F557D9C988168585F738694A6BDCB66
:100DB000D0C2792E24314C8FC6D7C79C6844455C7D
:100DC0007A98ADA79B907853372B467C9B9681628F
:100DD0005164859AA7BBC9CFD0AE5A2124365EA2F2
:100DE000CFDAC3925A3A3E5A81A5B5B1A795723E61
:100DF00012154D82989477585D809BAABCCCD8D8A8
:100E0000B2601C15315C97C5D2C8A67345364975CA
:100E1000A2BFC3B79F75370C0C3372999E876C6B5A
:100E20008296A5BAD6E4D9A848081132619CC0C7F9
:100E3000BCA47645344877ACCFD0BA9A692C0F164B
:100E40003F7A9B9E8B797C899099B6DCE7D7952C6D
:100E5000000D2E659EBDC4BBA16F41365284B5D531
:100E6000D3BA965E23101D4D859A9688838A908DFD
:100E700094B8DCE0CA7B18001334669ABDCCC7A5D1
:100E80006A4041628EB8CFCBB69251180E265F8B66
:100E9000958D899097928796BDD6D8B8580D132A0C
:100EA0003A659BBED1C9985C4557748FAFC4C3B433
:100EB0008B401117417081868C949A968889A9CEAF
:100EC000D6C991391B312D3066A1C4CCB584636578
:100ED00070768BB0C5BDA26D2F18304E61768E9C9A
:100EE0009E988D8898B7CDCDB06C3736301B387C46
:100EF000ADC1BBA2877E776B7092B2B6A7875B3C11
:100F0000363E4A5C78929D9D9A9594A7C0C8BD953F
:100F1000553C3F2319508FADB5B1A3998D726176C1
:100F20009CA99E907E624C43454F5F758C9DA3A00B
:100F300098A0B7C2B9A57A504C39102A729399A6D5
:100F4000B2B0A6876A74929A8D898A765D4E535A9A
:100F5000575A74929E9C9AA4B6BEB5A98E675A4AF7
:100F60001A1A5A7A7990AFB9B5A18485978F7E8382
:100F700089705555606259536C8D938F99AAB2B69A
:100F8000B6B09A77685D2F1A47645E749EB1B6B3A7
:100F9000A39EA3927E8384674B52615B5257698301
:100FA0008E909FB2B7B4B7B29472726B3726535E0D
:100FB00049618F9EA7B3B5B7B299898F805C4E56B1
:100FC0005A57505469777D8FA4ACB4C1BFAD977F99
:100FD00072684736525844587F858BACC0BDB7AD58
:100FE000A39A8161595B4E4A585D58677F878FA5E8
:100FF000B3B8C1BEA68E80725A475155454B677033
:10100000718DACB5B8BCB9AD99806C61564E4C527F
:10101000595C6275858A9BB3B6B5BDB18F8486670E
:101020004C5F614347646161839FA5B2C1BFB09FBC
:101030008C7864585B564E5B685F668188859CB38C
:10104000ADA6AEA388868367606B59485862607509
:10105000939FA9B8B7A99B8B796860626463626942
:10106000726F6E828C8592A59A919F9C82838C73FD
:10107000647065505E7474809DA9A7A49F94837466
:101080006D6A676A706F707570727C7881958983FC
:101090009A978793988680816E636A6968788A9543
:1010A0009EA29F988C7D75716E717675787A756E3B
:1010B0006E7171748084808B9185889289868A781C
:1010C000707F746784978892A59485897967707614
:1010D0006F7787898280817B73767A777985867E40
:1010E0008089837678817468717A707799988AA9F3
:1010F000AF86879B7865817A6377846E6B7C7B7122
:10110000798786848E9389878E84767D80706D76CC
:10111000736E78817D8491877F8A81747F827F88D6
:101120008B888A8481867A74817C717D7F74797FD3
:10113000767A86837F878B85838585817F827F7B97
:101140007D7D77777D7E7D82867F7C827B737E80CE
:10115000777F8A8683888A847F87877A7F8677727B
:101160007F796F7C82797F8C8782898C8582878466
:101170007B7A7B7573797A78808683828787807E95
:101180008480798081777A817C8088858D90858B39
:101190008C7A7C8372707D756D797B747B85858696
:1011A0008D8F8B8788847B7C7E79787D7B787B7B39
:1011B000797C8081828282807F7C7B7E8387868827
:1011C0008E887C838475778074717D78717C807B58
:1011D000828C8A888C8C858184827B7C7F797579EE
:1011E00074707877798482848B81828B81829084F9
:1011F0007E8F837182836F78837676827E7A83880E
:1012000085858B8B8280837B737A7C767C837B7AEB
:10121000837B75807D747A818083888B8F8E8B8EA3
:101220008E8581807976787574797B797C818180EF
:101230008386858284837D7B7E7B75797D737482D2
:101240007D7585887A8492868A968D8B9086838632
:101250007D797C727076706F797B7C8487868786D7
:1012600084827D787374726970796F7587848A9EC1
:101270009D9AA19D938B848377696F6D5F68777268
:101280007A8E8F8E97968C8681776C635D5D5F5AC0
:10129000657A777E989999AFB0A6ADA08C8D79626A
:1012A0006D624E636D6178908A94A7A39C9C928333
:1012B00072665C484552474F7274789DA6A7C1C5B7
:1012C000BCC3B0949377505C55364E66586E93927B
:1012D0009AB3B4ACAAA0907862584133403C3D61C7
:1012E000717497AEB1C6D1C8CCC1968B834C3C57B4
:1012F0003E31626E648DAAA2AFC3BAABA1927B5994
:101300004141361F34585060959F9FC7D8CACED2EE
:10131000BB917E794B29494B2F55807686B2B5B06B
:10132000C0BFAC9987744F323B35183863566BA2F7
:10133000A8ACCFD9D4D3CAB690736B4323404532FF
:1013400058807A8DB4B8B8C2BDAD977E65412B2C5C
:101350001E1C40556188A9B6CCDFE1E6E0BFA49130
:10136000634139282941495F8494A3BDC3C0C3B4F4
:101370009D8865413020121B2E425E7E9BB5CBDEE0
:10138000EBEAE2DBB7827665281B413A2D5F868562
:101390009BBEC5C0C2BFAB8A6E553118181B1D3726
:1013A00058708CABC5D9E7ECE8E2C494806F2E1678
:1013B000443B1D55857890C0C4C0CBC8B898765EB4
:1013C0003B17151A172B526A81A4C3D5E3ECE8E545
:1013D000CB967E75360C3D461948897A87BBC4C0CA
:1013E000CDC7B9A1785D42180E1C1927536F81A390
:1013F000C4D3E1EBE6E4CF977D78380A3A49184147
:10140000887D86BCC6C1CCC4B6A27558461B081DD3
:10141000212954788BA6C0D3DFE5E5E3CF98777018
:101420003C0C2B482B40808D93B1C2C7C5B5ADA1F4
:1014300074564C2C1423303453778CA1B5C6D5DAAE
:10144000DEE2D5A279744F121C493B36749794A7FB
:10145000BFC3BDAEA39E7E5A534124293B3C4C6F73
:101460008594A9BBCAD6DDE0DCB9806D5C1E083965
:101470004432659B9CA9BEBEBCAE97958965575604
:101480003F3643444A6175859AAABBCDD4DADFCC96
:1014900093695E34021843415289A7AEB8BBBBB40E
:1014A0009C8E8E7B6862544D5047445A696E859E6F
:1014B000A9B7C7D3D8D3BC81555028001F564A5E60
:1014C000A0B4B6BFB7B4B290808C7D686359565A49
:1014D0004A425D716D7FA6B0ADBFD0CBC2B47D4E28
:1014E0004E2D00265A5A6F9BAFBDBBA7AEB4917F5D
:1014F0008C857364565B5A45435B6F7A869EB5AEA6
:10150000ADC1BFB1B29054545419195E6A6284A13E
:10151000ACB2A09FB7A6828C9780675653584738C5
:1015200051707B899CAEB5A6A7B6ADA39F725467D8
:101530004C1C4879666C8F99A5A592A4BA9A849997
:1015400095775F4E50543C3B647F8392A4AFAB9C35
:10155000A2ADA6A4966A637041255D7763708B99EE
:10156000A9A092ADBB9584928C6F534753553C43D1
:101570006E83848F9BA5A599A1B2B1B09F746D7342
:1015800042295E7463738D9AAEA994A6B490788054
:101590007B6852414B584742648286868C9EA9A341
:1015A000A6BAC9C4A47B747046305673747D8EA1EC
:1015B000B6AE93939E8A6D666B695A464757554EF1
:1015C0005A7282888891A4AFB1B5BFC3AD816C6FE8
:1015D0005B465874818E969AA8AF978487826F670E
:1015E00068665F564F50504F576777838E9CA8AF01
:1015F000B3B3AFAEA2846C6B6B656D828F9497951D
:1016000093938A7B787B756E72767067625E5C5BA3
:101610005A606B78838A8F93928E8B8A8C8E8E8C95
:1016200094A0A7ABB1AFA09388786C665D585A5D63
:101630005D6066686C7276787D8182838686857F40
:101640007773717176828E969AA4B0B3B3B2AC9E62
:101650009286786F6B635A595A58575C60656D74FF
:10166000777B7D7B7C80827F7C7C7F848A929DA53A
:10167000A6A3A6AAA49D9A92847B756A6566615EFC
:101680006568676B727476797876736E6C6C6C6E65
:1016900071757A848E99A4AFB5B3AFAEABA09590B7
:1016A0008677716E66646766656B6F6E7278787741
:1016B0007775726E696767676A70757D88939CA796
:1016C000B0B3AFA9A6A49A928E857976746F6E7125
:1016D0006D696E6F6C7074727377777574727170F8
:1016E0006F7275787D848C939BA1A3A09B9B9A932A
:1016F0008F8E867D7E7C7676766E696B6A686B6F80
:1017000071757B7E7E7E7E7D7B7A7C7D7D7F84860F
:101710008A8F92938F8B8E8E8A8989858283827E2F
:101720007D7A726E706E6D7175787C80818181803A
:101730007F7D7D7F7E7E81828386898B898583867E
:10174000868385868281827F7B7C797475777678C3
:101750007E8081848583807F7D7B7A7B7C7C7E809C
:10176000828385888A89858588858284837D7C7B40
:101770007675777573787C7D808586868685817F92
:101780007D7B797878797A7C7E8184888D918F8D44
:101790008E8D8885837D7674716E707273767C7F92
:1017A000828689898987837F7C7976747271737563
:1017B000777D82868B92949292918E8885817A76BB
:1017C00073706F7174777B8183878B8D8B89878230
:1017D0007E7A7773706F6F7174777B838A8E929540
:1017E00093908F8D86827E7773706F6F7276797C1F
:1017F000808486898B8A888683807D7977747373E9
:1018000075767A7F82888C8D90918D8B8984807F8C
:101810007B7776757578787A7C7C7E80808283820F
:1018200082807D7C7A787979797B7E808386888BCB
:101830008B8B8D89858584807F7F7C7C7D7B7C7D87
:101840007D7D7C7C7E7E7E7F7E7B7A7877777878E4
:10185000797C7C7F83848788898987858585848353
:101860008383848483838382807F7E7D7D7C7B7A77
:101870007978777676767778797B7D7E80818182BC
:101880008281828282818383838686878888898910
:101890008A8989878683807E7B797675747474756E
:1018A0007678797B7C7E7E7F7E7E7E7E7E7F7F7F6C
:1018B0007F7F8080818282818283848688888888F5
:1018C000878685858382817F7E7D7D7C7B7A7A7A1F
:1018D0007A7A7B7C7C7D7D7D7E7F7F7F8081807F2F
:1018E0008080808182807F80807E7F8181838484EC
:1018F00085848485848181817E7D7E7D7D7C7B7CE9
:101900007A7A7F7F7B81827D7F817F8082818181E6
:1019100081807F80807F7D7D7F7F7D7E7F7F7E80D9
:1019200081818283818283838281807E7F7E7D7EAE
:101930007E7D7D7D7D7E7F7F7F7F807F7F818080BC
:101940008181808181818181807F7F7E7E7E7E7F9B
:10195000808080807F7F80807F8080807F7F7F7F8E
:101960007F7F7F7E7E7E7E7E7F7F80808080808185
:10197000828281818181807F807F7F7E7F7F7F7F68
:101980007F8081818180807F7F7F7F7F7F7F7F7F5E
:1019900080808081818080808080807F7F80808047
:1019A0007F80808080818181818181818180807F31
:1019B0007F7E7E7E7E7E7E7E7F7F7F808081818037
:1019C0008080807F7F7F7F7F7F7F7F80808181821B
:1019D000828281818080807F7F7E7E7E7E7E7F7F0F
:1019E0008080808080808080807F7F7E7E7E7E7E03
:1019F0007E7E7E7F7F8081818282828281818180E2
:101A0000807F7F7F7F7F7F7F8080808081818181D9
:101A100081807F7E7E7D7D7D7D7D7E7E7F7F8080DF
:101A20008181818181818080807F7F7E7E7F7F7FB9
:101A30008080808182828282828181807F7F7E7E9F
:101A40007E7E7E7E7E7F7F8080818181818180809D
:101A50007F7F7E7E7E7E7E7E7F7F80808181818192
:101A600081818180807F7F7F7E7E7E7E7E7F7F7F83
:101A700080808080808080807F7F7F7F7F7E7F7F6F
:101A80007F7F808080808080808080808080807F59
:101A90007F7F7F7F7F7F8080808080808080807F4D
:101AA0007F7F7F7E7E7E7F7F7F7F80808080808043
:101AB00080808080807F7F7F7F7F7F7F7F7F7F8030
:101AC0008080808080808080807F7F7F7F7F7F7F1D
:101AD0007F7F7F7F7F7F7F807F7F7F80807F7F7F13
:101AE00080808080808080808080808080808080F6
:101AF000807F7F7F7F7F7F7F7F7F7F7F80808080F1
:101B0000807F7F7F7F7F7F7F7F7F7F7F80808080E0
:101B100080808080808080808080808080808080C5
:101B2000807F7F7F7F7F7F7F7F7E7E7E7E7F7F7FC8
:101B30007F7F7F80808080808080808080808080A8
:101B400080808080808080808080808080807F7F97
:101B50007E7E7E7E7E7E7E7F7F7F7F7F7F7F7F809B
:101B600080807F7F7F7F7F80808080808080818178
:101B70008181818180808080807F807B7B847E7B6F
:101B8000817F7E7D7D80797C857E76838677828A63
:101B90007D83837E7F80838083857E7D7B7D817F47
:101BA0008083817C8381787D8982777F8A78738640
:101BB0008175847E74827E77817F7F847C7E898438
:101BC000828486857987847785817B817B7E7C7B17
:101BD000857D7D847B7F817D83827F827F7E7E7C0D
:101BE00080817E81807D817E7D8280818082807CFB
:101BF00086837C86837C7F7F817F7A838078847DE7
:101C00007A827E7E807E82807F7F837F7C858178E2
:101C1000858178807E7C8179838679858579877FC7
:101C20007D897B80887A83807B83787C84777F85BD
:101C300079818177827E7D847D858179887B7C88AE
:101C40007984867784827A83827E838381817F838D
:101C50007F78847E75857C757F7D797D7D807F7AB8
:101C60008285788A88758D83788F80848B7C8F8538
:101C700078938177897C757A7373716E756C6B7CE0
:101C80006F77897888918298998EA19D9299948B8B
:101C9000858282736D74625B685C586A6461737874
:101CA0006E81988291AF939EB59CA5A4989D8583E3
:101CB0008B6A6A745D5B60575A59636863767D7698
:101CC000898E929E9CAAA89DADA2969F8E868275B3
:101CD00070676264575A625A5D696A6E768082855F
:101CE0009B9891AEAB99AEAB979A99887B78755FCC
:101CF00059655447635E4A6E7560808D8094A69DD9
:101D00009DB6AD99B3AD8F9A967A74736453575953
:101D1000474E5F535B7470778F9094A9A3A3BAA6C4
:101D20009EB99E8DA18971786C575559524757615C
:101D300051647C6F7C989197B0A4A7BCA0A2BB947F
:101D40008CA07C6D776150525649435F5A4F74792D
:101D5000718E9A94ADB1A0BEB292BBA985A18F6FCE
:101D6000756B584A53533F5063505D7B727A989617
:101D70009DB5A9ADC29FA3BC938EA37E6B7664472D
:101D80004E5841435E57536E7774869B96A8B9A40C
:101D9000BABD91B7B382A2996A766E5249524E3F4C
:101DA00051615162786D7C91909CB4AAA8C9A795A5
:101DB000C69F82AC8B64786A454856433D605F4954
:101DC000747C618C9C83AABF9AB2D0949DCD8F8580
:101DD000B281617C683C4B5A383C6A54487D7460DF
:101DE000969884B5BD96BFC988B0C68097B0736B0E
:101DF0007F5C3C535330476A474F8168659C938AA8
:101E0000C0B999CFBF88C2B77CA6A16974764C3E91
:101E100053462D51613D5D7F5B74A28A99CBAFA67D
:101E2000DCB192D2AA81B29565796E4240543A2DC6
:101E30005A5539697355829784A5C5A9B1DCAA9C06
:101E4000D7A386BA9063826C3C4A5532365F4C3FCA
:101E5000706A55898F7FACC0A1B5D9A19FD99C87E5
:101E6000BF8B61886A3951582F3D65484276655568
:101E70008E8A7DAFBA9FB6D4A29CD7A084C08E5F55
:101E80008B6C385458303F634B44736A56898E7A52
:101E9000A8BB9FADD2AA91D0AE7AB99F5B867C3B9E
:101EA0004F62363A65544370715782907A9DB2A55D
:101EB000A6BCBC8FAEC57D9AB767748F4C48684787
:101EC000385D5D496175606F8F7F8AABA6A4AABC3F
:101ED000A88FC1A47AB494608E7546615F404F6349
:101EE00055516D6A5D7F8477999F9FABA5BAA59484
:101EF000C59985B9856C9669506A5746585D55589D
:101F0000686762787F77909A9AA7A2B4A994BFA1D4
:101F100085B48E6F9472566A5D4D575D5B57666AE5
:101F200062737B75869093A298A6B48EADBB85A68E
:101F3000AC758B8B61656957525D64576174616CD8
:101F4000816D788F7E8EA086A0AD83ADB586ABAA5D
:101F50007C908C6A686F6054646A586873616E7AAA
:101F600068767F7583948091AC869FC492A4C08C60
:101F70008D9E796A786C55636F585E755E5F796186
:101F80005E7A6A668988789EAC86B3CA95B5CB8E30
:101F90009AAC786E8766516D654A61694F5C6C5486
:101FA000586E5F6381878196B59BA2D9AFA6DDACE1
:101FB00091BC8F6B89704C63614653604D53645381
:101FC00056675C667A778A9B8FB0B59DCBC8A6CEE4
:101FD000BE95AB9670776C545256504A565B536020
:101FE000685C69726777857B929F8DADB496C0C23D
:101FF0009BBBB5879791686A6E524E5E554F646879
:102000005E737A6B7B81737D847D838F8F889FA1C4
:102010008BADAE8AA8A57A908E646E75555B6C5EAA
:10202000607875718587778789747E826F797F770D
:1020300081818891869EA28CA39E80928769777207
:102040005F6D716B777B7B848685878683807C78E8
:1020500075727175777E7F819089869C8C849B8751
:102060007A8E7E6F817A6D7B7D737B80787C867FB4
:102070007F8A847E8781777F7B727A7B787E7E837E
:1020800086838F928B9794878D86767874696E6F2E
:102090006C73777880848487898583837E797A7866
:1020A00075797D7D828789898C8E8A898E89858ADA
:1020B000867E837E757A78707474707477757A7E94
:1020C0007E81848484878885868781818179797AF5
:1020D00074757876777C7E7E8588898F91909292D0
:1020E0008E8D8A85817F7A7775727172717275773C
:1020F0007A7E80838585868482827E7A7975717204
:102100007272767C7D838A8C909797989B98959332
:102110008D86827B75706C69676766686C6F737992
:102120007E82888C8E919291928E8B8A857E7E792A
:102130007274706A6F716E777C7C84898A8F9392D7
:10214000949591908D87827E797572716E6F7070A3
:102150007275777A7D8082858787898A8888878566
:10216000848381807E7D7C7A7A7A79797B79797DA6
:102170007B7C7F7E7F828283878687898787868331
:1021800083817F7F7E7D7E7C7C7C7B7C7D7C7D7F74
:102190007F8082828283828281807F7E7D7D7C7C43
:1021A0007C7D7E7E7E7F7F80808081808182808139
:1021B000827F80817E8080808080807F7F7F7F7F24
:1021C0007F7F7F7F7F80808080807F7F8080808016
:1021D00080808080808080808080808080808080FF
:1021E00080807F7F7F7F7F7F7F7F7F7F7F7F7F7FFD
:1021F0007F7F7F7F7F7F7F7F7F80808080808081E7
:1022000081818181818182828282828181818181B9
:1022100081818180808080808080808080807F7FBD
:102220007F7E7E7D7D7C7C7C7C7C7C7C7C7D7D7EE1
:102230007E7F7F8081828283838384848383838380
:1022400083838383828281818180807F7F7E7E7D84
:102250007C7C7B7B7B7C7C7C7C7D7D7C7D7D7E7EB9
:102260007E7E7E7F7F7F7F7F7F7F80808081818277
:10227000828282828383838485858585848382822A
:102280007F7F7E7878787576797C7D7F8082848385
:1022900084848383817D7D7E7A787B7B77797B7B69
:1022A0007C7E7D7F828181868886888B8B8A8989E6
:1022B000898583817E7C7975767775767A7C7E8256
:1022C00085878B8B8A8988867E7D7E7570716D6C23
:1022D0006E6C6F75777A81878A8C919696969694B4
:1022E000928E8884817973726E6B6A6C6F73777C5F
:1022F00084888C9093918E8F8A80807A716E6A66C2
:102300006A68687075787E838C8F90989D9D9B9984
:1023100097938B837F7A746C696B66656B6F737947
:102320007E858C8C8C90908A8A857D7C736C716D97
:10233000686E7072797A818C8D90999B9C9E9C9529
:102340009591818080726D6C676868656E73757D2C
:1023500081858C8A878B8B8583817E7B7674757370
:102360007375777B7E7F8489898B8D9193928F8E15
:102370008B898380807B76747373717173777879BE
:102380007D81828382868884858481817D7D7E7B38
:102390007B7C7B7C7D7D8182818685848789878724
:1023A0008985868380827E7C7D7A7B7A76797A784D
:1023B00077797D7C797E817F7F8181817E7E817F3F
:1023C0007D7E7E7F7D7F808181828283828180830A
:1023D000817E8383818283838584878684848280CF
:1023E000827D7D7F7B78797A7B787B7E7D7C807F28
:1023F0007E7F7E7C7F807E7C81807D7F837F7F81EE
:102400007E7F7F7D807F80807F85828185838284BF
:102410008180817F7F7F7F807E82817F84848083B3
:1024200084817F7F807F7F7F7D80817D8083807EB0
:102430007E80807C7E7F7F7D7D80818081808180A9
:102440007D7D7F7D7B7D7E7E817F7E828480818598
:10245000847E81827E807F7D7F817E7C7F82807C86
:1024600080837E7D7F81817D7F837F7E807F7F7F74
:102470007D7E7F7F7D7E81807D8181818081838360
:10248000808082807D807F7E807E7F817D7E7F7F59
:102490007F7D81807E818180817E82807F8081803E
:1024A0007E7F7F7D7F7D7D827F7F83818180818331
:1024B000808081817F7F807E7F7F7C7F7E7E7E7E2D
:1024C0007F807F7F808082818182817F807E80810A
:1024D0007C7D817D7B7E817E828180818381818301
:1024E00083808181807F7F807E7E7E7C7E7D7D7FFC
:1024F0007F7F808180818282828180817F7F7E7FD9
:10250000807C7E7F7D7F7D7E8082817D7F847F7EDB
:102510008282827E7E847F7C827F7E7F7E7E7E80C2
:102520007E7C80807D7C82817E808281817E8080B5
:1025300080807E81827E808081807E80827E7F819D
:102540007E80817E7F7F81817D81847E7E82817E8F
:1025500080817E7F7D7D7F7D7F7E7D807E7D808092
:102560007E80837E818581808183827E7F837F7E62
:102570007F7F807E7C7F8080807F83837E7F82825E
:102580007F8080827F7B7E7F7C7D7E7E7E7F7F7E64
:102590008083807F848481818182807F80807F7E30
:1025A0007E7C7E7E7B7F807D81817F83817F828137
:1025B000817E80817D7E807D7F7E7E807E7F827E2B
:1025C000808381808182827F81837D7E817C7D7E0C
:1025D0007D7C7D7E7E7C7E817E8083808182817F0A
:1025E00080817F7F807E7E7D7E817E7F82807F81F5
:1025F00081808182818080817F7F7F7E7F7E7F7EE0
:102600007C807D7D80817E7E808180828084817FD0
:10261000818181817E817F7E7F7F80817F818381B7
:102620007D837F7B7F7F7B7B7F80807F84827F80B9
:102630007F7C82847E827E807E7C7D807E7F7F80A8
:1026400087827E86857D81807F7E7C7B787A817B98
:10265000808F7E7A8B877E81807877797D7C888B6E
:1026600079798380797E827E7A7E7B7C878581857D
:10267000848385838485837F7C7D7D797D7E7F8255
:10268000837B7C807F7A7E827E7B7B7D7F81838360
:102690008280828183878682807D7A777A7D7B7E45
:1026A00082807D84838085868385847F81817F810C
:1026B000817D7D7E7C7F808082807D7D7E7C7D7F34
:1026C0007A7C7F7A7C817F7F83838380818482820E
:1026D000848381817E7F8382858988848283827ED0
:1026E0007E827F7D7C79777876767A777476767459
:1026F0007779797D7F7A7B8385868C8F9094969885
:102700009A9C9B97938D88837E79756F67615C5ADD
:1027100059595A5E6266696F7980828A919399A24B
:10272000A2A5AEAFA9A9A99F98958B837F7369666F
:102730005D585956565D5C5F67696B71727274754E
:1027400077797C82878C949BA2ACB6BAB8BBBCB2BA
:10275000A9A597897D6E6459514C48474D4E505EEE
:1027600064636C7372757B7C7C7F8384868D949AA2
:10277000A3AAB3B9B3B4B7ACA19F948881716963BC
:102780005A57544F5256565D65676B70737575791D
:10279000797A8084878D949CA3A8B1B6ABA9ADA2A9
:1027A00096958C80796B66625A5C5D5A6369687035
:1027B0007977777A787675757674767B7D818A906D
:1027C000979DA5AEA8A2A8A1928E8A7F797069680C
:1027D00063636766687172747D7F7B7C7C797676D3
:1027E000767575777A7C81888D9197A0A29B9C9E47
:1027F000948B8B86807B73716F6A6C6D6B70757454
:102800007A7F7C797A7A7776787977787B7C7F841F
:10281000888D90969E9E989A9A918D8E8984807AC2
:1028200078736F6F6C66696A686D716E6C6F706FCC
:102830007177797B7F83868A8F9294999EA2A6A2D4
:10284000A0A09C9595928B857E79756D6A665E5B7E
:102850005C5A5C6162616465686C71767A80878CB1
:102860009196999B9FA3A6AAABA3A1A39C95969290
:10287000857D7A726A69665D5A5F5D5D65676365CD
:102880006865646A6E6F757E81848C92939AA5AA3E
:10289000B0BBBCAFAAAB9B8A8C88746D7069616455
:1028A000635B5D6361677679757678716B6B6A6778
:1028B000676B6F757B7F858E9AA5B2C0CDCCBCBA95
:1028C000BAA18B8E80656160524D504C4A555E6353
:1028D00074868A8C918F847E7A6D67686463686978
:1028E0006A747E869AADBACBDAD7C5C4C19C878C90
:1028F000725559513C3E45414758647388969FA490
:10290000A19B91867A6C645F5A54565B5D677580B3
:1029100092AABBCCDCDCCCC5C3A3848372534E4BE0
:102920003E3B44494D5C6F82909CABAFA59D958624
:1029300073675E524C504D4B576368798FA2B7CB8B
:10294000DBE2D9CBCCB2858179504B513F3D484D2C
:10295000535F7087939CB1B4A8A599837261504965
:10296000434147464D5C6570879CAFC4D7E2E3D6D0
:10297000CFC9A282836C4B524D3F4851545D6A7F50
:102980009094A5B6ABA3A28C7266574440404042D7
:1029900049555D68788B9CB0C6D7E1DFD5D2C09829
:1029A000888261535849485355596470818B94AA61
:1029B000AFA3A49C86726153493D3E47404D605F82
:1029C0006B85909EBACDDADFD8D4CCA98F876E56AE
:1029D000564D444C4E525C6777838CA2AFA6A5A59A
:1029E000927F6F5E524A4547464C5C616981909F79
:1029F000B4C6D7DED4CDCCAE8F86735B544D444B7A
:102A00004C4F59626F7B8294A39D9EA292847964FD
:102A10005C574B4D5252616C6F83959CAEBDC7D4D1
:102A2000CEC2C6B694897E675D544A4F4E4D575DFF
:102A300065727785989898A09B8F84756B645955BB
:102A400057555D666874838B99A9B6C3C6C1C5C363
:102A5000A89692816C635A57544E525A5B626D76B7
:102A6000848F92999C9992877D796E6364635D608F
:102A70006162686C72818B96A8AFB3BEC3B8B2B204
:102A8000A89A8D827B6D5C5451494448525B6471B5
:102A90007F8A93979899988F877F756B6259555560
:102AA000565D6978899BA9B8C5C7C6C6C0B4A99B3D
:102AB0008A7B6F5E4F4C484245505862707A838BD8
:102AC0008E8D8E8B868179736F68616163666D7997
:102AD0008796A1ABB7BEBBBAB8AEA69D8B817B6C07
:102AE0005F5B555054565B6772778088888989840C
:102AF000807E726C6E645D62615F68727C8D9CAA80
:102B0000B2BDC5C1BDBEB1A79E897A736253504A9A
:102B1000474D555C6A79808691928E8D89807B7451
:102B200068625F58575E636A7B8995A8B4B8C1C86C
:102B3000C0B8B6A899947F6C6C5F4D51514C5860E9
:102B400062737F80878F8D8A89817A7A71646562EA
:102B5000575E64627383889BAEAFB7C3C2BCB9B023
:102B6000A49B8E776B68574B5150505C62697B8396
:102B7000818B938E8A887E7A76695F625F596167FE
:102B80006C7D888FA5AFAEB8C0BBB8B2A79F968347
:102B9000706D6555515451565E62707E7F8390937F
:102BA0008E8B85807C716463625B5B6068747C87FC
:102BB0009AA9AFB4BEC5BFB6B0A79E8F776D6A594C
:102BC0004D4F5052575C67777D7F8B9594908C87E3
:102BD00082776A64625B56596067717D8DA0ACB084
:102BE000BBC7C4BDB9B0A79B85736F614F4D4E4C39
:102BF00051575F6F7B7B86959592908B8681706431
:102C0000675D535859606D738399A6ACB5C1C7C150
:102C1000BBB7ACA391787069544C4E4C4E555B6970
:102C20007A7E82939995938F8884786663615250F7
:102C3000565863707A8EA4ABB2C1CAC9C2BDB4A9DA
:102C40009C83706C5A494949474E545E717D7F8C14
:102C50009B9B9997908B837366635B505154586527
:102C6000707C92A5ADB7C5CDC9C3BDB2A9997D7021
:102C70006A53474644474E5362757D82919C9C9BA4
:102C800097908C806F645F564D4F535A667383994B
:102C9000ABB2BECBD0CBC4BCB1A692766B624B417B
:102CA0004240454E55677C8087999F9E9B97908BAD
:102CB0007C67625D4D494C505B667389A0AFB6C5B9
:102CC000D0D3CDC4BDB1A28C72685A443D3C3C43C4
:102CD0004C566B7D828E9DA2A29F98928B786560E8
:102CE000554846454B5963738CA0B1BDCAD3D8D261
:102CF000C6C0B2A18C726356433A393B424C586B02
:102D00007E87929EA4A5A099928A79665E534744D5
:102D100043495661718A9EB2BFCAD4DBD8CAC4B5D2
:102D2000A492766258463937383E4955657A8A9179
:102D30009CA6A8A59D958B7E6C5B5149413F455053
:102D40005D6E8196AFC0C9D6DDDED5C9BAAA9A7FBD
:102D500065594B3A34343945505C73868F9BA5AA2C
:102D6000A8A2978D846D5B53473F3B3C47566478E0
:102D700092A9BDCDD7E0E6E1D2C6B4A18D70594E7F
:102D80003E312F323A4753647C8C96A0A9ACA79D64
:102D900092887B65554C433C39404D5C6D819BB3BB
:102DA000C7D2DEE6E7E0D1C3B09D86675549372E2E
:102DB0002D313B4855687F8D96A1A9AAA59A8E848E
:102DC00075605149413B3D445465758CA5BCCED8D6
:102DD000E3E8EADECCBDA9967C5D4F42322B2A3275
:102DE0003E49576C818E96A2A7A8A2958B806F5CF6
:102DF0004F48413F434C5D6E7F97AEC4D5DDE5EB58
:102E0000EAD9C8B7A4907155493D2F282A34404BC0
:102E1000596F838D94A0A5A49C8F867C6A574D48DA
:102E2000414146526474859FB6CBD9DFE7ECE6D4C6
:102E3000C3B2A0896A51483A2C292C37454F5E729B
:102E4000878F97A0A2A3998C827667554C494446F8
:102E50004C576C7D8FA7BDD2DCE0E5E9E2CDB9AA85
:102E600098815F4841352A26293947505F768A92F2
:102E7000979EA2A29786807765554B484A4B4F5E36
:102E8000748597ADC4DBE2E3E8EBE2CBB6A5967FB1
:102E90005A433E33292525374B515E768993989ABC
:102EA0009DA09582787162524743494E505F778B5F
:102EB000A0B3C6E0E9E7E8E8E2CCB49F8E7D5B3ED4
:102EC00039312B2925354F5A64788A999F9B989AD6
:102ED000948171685D53483E42505663788FABBC15
:102EE000CEE5EEEDECE7DDC8B095807154382E2BC1
:102EF000292F2F39576B7484919CA59C8F8C8577D3
:102F000063564E4A4942455765728599AEC5D4E528
:102F1000EEEAE8E3D5BEA48E7A6C563B2E2E33360D
:102F2000363F5B777F87929A9D8E7C756D64554B9B
:102F3000535C5C5A5D6C7D838BA2BBCDDDE9EAD826
:102F4000C5BDAE8360656B6860586986816B6E76BF
:102F50007263505567553D4B656A676E859D957FD9
:102F60007C80705B54647D91A6CAEAF3EDD4BDBC4D
:102F70009B583F5871756F7599AF93716866583E4D
:102F80002C48695B4C64807E6B67778578666876D1
:102F900076696C85A3B7CCE5ECEBDCAA898469384B
:102FA00037699AB2AE9FA8A7794125253740476770
:102FB0008D96836F64645E50536F858E887F7F7EAD
:102FC00073748EB8DBE5E4E2D19872664F42527EAC
:102FD000ACCDC2A69A8B6335161B415D6B7A83819B
:102FE0007861494A63727E8C959D95735D636D7CB3
:102FF00095C1E4EAE5D0A07668543D4E86BAD4D0B7
:10300000B09279532815183A7295A2A2957958333F
:103010002234567694AEBDB7986C52515874A2D5EE
:10302000E9E6E5CB8C60523F365291C5DDC99B770E
:103030005E3F231E316CABC9C7B08B60371B182FA6
:103040005D89A8B9BDAA80533C425D86BBE6EAE82B
:10305000E3AC5B3D3A333C63A8DCE3C085574237C1
:103060003134539ADBF6E4B06D3B211C1C356FA65E
:10307000C7C7AE865C3324325C99D3EAE9E9D98DBF
:10308000331A26344C76BBE5E7C3793C2B333D4AF3
:103090006EB2F0FFEBA75120202B314C81B5D5CE7D
:1030A000A6673019203C6FAAD9EBEBEBCA6F1A0D5B
:1030B00027446285C5EAEAC36A251E31455B79B4B7
:1030C000F0FFE7993E1F2838495F82ADCDCA9F5572
:1030D0001B132F5A8BBAE0F2F1EBBA5D120C325A85
:1030E0007890C0E7E5B559191A31516E84AEE1FB0D
:1030F000E18F341C2239607789A4BEC19B4B110E2D
:103100003372A4C5DFF1F2E9B75E160D386A8B9C05
:10311000B9D6D7A9531110264E788DA9D1EEE4A1C6
:10312000432020326687919BAAB6A25F1F102D74A0
:10313000ABC1CADCE9E5C780341532638B9BA6B509
:10314000BAA2631C09234F849EACBED3D8B6652EA9
:10315000292F6299A6A19E9F997030101B58A2C377
:10316000C8CAD3DAD3B16E28143564889FACB4B121
:1031700091531E19326090AABDD0D8CC9F532A27F4
:103180003573A7B1A99C8F7D4F1B0B2D72B2CBC895
:10319000C3C7D0CEB3722E1A315E85A3B4BDB6922A
:1031A000572923345C8BACCADDD9BD8541221F2E43
:1031B0006DAABCB39D8266441C12397AB8D8CEBAC7
:1031C000B5BCCCCEA256262547759BAEB2AE936950
:1031D0003E27294577AAD0DCCBA97B462B293A6E1E
:1031E000A6C3BB9C714A362A2D5089BDD9D0AF9950
:1031F0009DB2CECEA55F34324B728C9796907D6196
:103200004538415F8FB8CAC0A483644B44526C9464
:10321000B1B7A0764C2D2D405F8FBACFCDB087755A
:1032200080A2CADBC6854D353A51687D868E8A7785
:103230005D4E49597D9DB0B09F8976645A61728711
:103240009EA6A0835F423A4E6D8DA9B7B3A1867446
:103250007A97BEDBD7B36B3321284F7593A1A39721
:103260007C59403B4C769DB3BAAE9B866D59515DFF
:103270007691A3A6987D605052627688969C9A8F2C
:10328000827C8AA7C1C8B0824B2E39577B919D9C06
:10329000968568493B456998B7C0B6A28E7D6A5845
:1032A0005058769CB7BAA37B53444B5E768486868F
:1032B000868179747991B2C9C7A97D5244506778E3
:1032C0007F858C93917A5D4D526E92A8ACA69C95A9
:1032D0008E7E695B5E7997ABAA93735F616B736F48
:1032E0005F545B6A7B85848CA1B8C7BFA2856E5D85
:1032F0005B60646C7A8EA1A48E684943597C9CAE55
:10330000B1ACA69D8B6E4F435076A3BCB9A381632D
:103310004E433E3D4C67869DA499877D828E9BA03F
:103320009FA0A3A08D7257484E688BA5AA987C6772
:10333000606B7D8D979C9FA199816148445C83A3BC
:10334000B0AA9579604B3D40516E8FA9B2A68968AD
:103350005358738FA1A9ADB3B5AC936B493D51756B
:1033600098A9A79C8B7866595562788FA1A59A8AEF
:10337000766359575F72899BA29C8D7C6C63626BEC
:1033800078868E8C84776A656C8096A4A3999397CF
:103390009C9D9587746964676D747B828B8B847741
:1033A0006961677586959993887B716A64646F8497
:1033B0009BABA998806D63616772808C94938677CC
:1033C0006A666D798389888482858D989C978D83C0
:1033D000766C676974828F93918B847D797675772B
:1033E0007B80878A8B8A857F787270737B848D91CE
:1033F000908C86807A71625858616F7E8A90918B2A
:103400007D6F66636B7B8D9EA8A9A59E948980764F
:103410006C6A6F7E8F9B9E988D7F726761616A7800
:103420008791928E877F776F68686F7D8B96979173
:10343000867A706C6D757D808382828484848383B8
:103440007E766E6C717D86898A8784858685858582
:1034500084878B8C8A8682828383807E7C7A78754F
:103460007171787F8688837C777475797D83898F85
:10347000918F8983807F8181807F7D79797B7B7645
:10348000706C6B6E706D6E767F898E8C8783818396
:10349000888C9094969695928D87807C7A777676B4
:1034A00076797D7F7F807E7A7A7C7F81807F808144
:1034B00081807D797776787A7C7E8083848482812E
:1034C0007F7D7B7B7D8083868585837F7A76737322
:1034D000767A7E82848585838281828385898C8EBB
:1034E0008D8A898684817D787778797A7C7E8182DD
:1034F000807D7A7C7E82848483838382807E7B79D4
:10350000797878797B7E82848482817F7C7A7A7AEA
:103510007B7D7E7F81817F7D7B797A7C7F838588BF
:10352000888886838180808183858788878482815B
:10353000807D7C7A7A7C7E7F7F7E7E7D7D7D7D7EB8
:103540007F80818283838382807E7D7D7C7A797B8C
:103550007E81838281807F7D7B79797C8083858673
:103560008483807E7E7F8080818181828282807E52
:103570007D7C7D7D7E7F81828483817F7F7E7D7E59
:103580007D7D7E8081838382807D7C7C7D7F808148
:103590008283838382807E7D7C7D7E7F7F8080812D
:1035A000807F7D7D7D7E7F7F7F808181828382821F
:1035B000817F7F7F7F8080807F7F7E7D7D7D7D7E20
:1035C0007E7E7E7E7F8081828282828180808081F9
:1035D00080807F7E7D7D7D7D7E7E7F7F7F7F7F8003
:1035E00081828282818080807F7F7E7E7F80807FDB
:1035F0007E7D7C7D7D7E7F808081828282828282D0
:10360000828180808080808181807F7E7D7D7C7DC5
:103610007E7F808080807F7F7F7F7F7F7F7F8081B4
:103620008180807E7D7D7C7D7D7E808181828281A6
:1036300081808080818282828282807F7E7C7B7B8F
:103640007B7C7D7E80818181807F7F7E7F80818287
:10365000838382817F7E7D7E7E7F7F7F7F7F7F7F72
:103660007F80807E7E7E7E7E7F7F7F7E7E7E7E7E72
:103670007E7E7E7F7F7F7F7F7E7F7F7E7F7F7F7F5F
:103680007F7F7F7F7F7F7F7F7F7F7F7F7F7F7F7F4A
:103690008080808080807F8080808080808080802B
:1036A0008080808180808181818080818181818111
:1036B0008080808080808181818181818181818100
:1036C00080808080808181818181807F7F80807FF8
:1036D0008080818181828282817F7E7D7E7F8082E7
:1036E0008382807F7E7D7C7D7F80818181807F7FE2
:1036F0007E7E7E7E7F808181807F7F7E7C7C7E7EE1
:103700007D7E80807F7F7E7D7C7D7E7F81868A89B5
:10371000847E7978797B7D828688867F79757679D3
:103720007D81848789867F797676797D8184868696
:10373000837E797575787E83858685817872757DBF
:10374000848A93948D82776E6C7480898E8F8A8040
:10375000756E6A707E8B92928F877D746E6E7582A5
:103760008C908D877F77727073787C8389877F8157
:103770008686888D897D7878787E858A8B8C827420
:103780006B6A6F7C8A90908D87807A7570727B846B
:103790008A8D877F7A7369687078818D928E8B8825
:1037A00082858E8876717C8383888A827D7F786B20
:1037B0006671828E938F89847D6E646876838E9322
:1037C0008C7F736B67676B778A9AA19E92858687D9
:1037D00071606F898E979C896E6D72675F6B7E9149
:1037E000A19C877B7569646D747C8F9A95887664DB
:1037F0005E646D81969C9DA39C8A8784675C7A96A3
:1038000092999E8670766D5353677E9CB1A1857A9E
:1038100070615E656F8AA9AA9B8C755C5660718B1E
:10382000A2A7A6A19081888669627F958C93907FDC
:10383000767E6949485A7EA7B99B7867605C5D656A
:103840007797B1AF967558556B7F8999A8A7AAB499
:10385000A36638406785A1B4A997825C2A21396B99
:10386000A9D1C493613E364968809AB3B69E7A6204
:103870005B65778696A5B2BEC9A65427355D80B430
:10388000CCBE9D7538121C418CD3E0AA6B443743E3
:103890005C7896B9BC9A77625F77989D969CB7CC16
:1038A000A45C33455B85BBC7B191672B14215AAE2D
:1038B000E5D89A59312936588BBFDBC290644B52F8
:1038C0007D9DA3B0C4D6BA6828316078A8C3B392EE
:1038D0007C5029203E90CED39B5742525D626D842E
:1038E000A5B1A38F7A748596928DA2C5B06C4C65F4
:1038F00075708F978B8C8F63463D4883B7B47A562B
:103900005C6F74685D6C92A69B938D838C9EA2AF56
:10391000B577465380879BB4946B655D494C578857
:10392000B2B69A6048565F6B7873778B98938C8A9F
:1039300087898B8BA0C9B97657646F6F929A857807
:103940007C6A524F638CABAB7F585969747A77723B
:10395000757B828FA0A398867D97BDA6665B7B92C0
:10396000919D875D5770796B6F81969E98745152C7
:10397000637989867F7B75727A92A2A1908396B7CC
:103980009F64567090969D8B6560767564647F9A8F
:10399000A19B7553566B838575727A8C97877A7E57
:1039A000899495AABB8A5A59768F8C94876C6E7CC1
:1039B00073635D7893989A715160728F8E74636AA5
:1039C00090A69C8A7A798394B6B57057699B9B863A
:1039D0008C6F5A7485695B6D89929D834E5463899F
:1039E000A1977F646C8F95888484898DA4C4914F3E
:1039F0004C86AB919E965B4A737C6C78827E8994F0
:103A000067435A7F8E989E8369768A828296A17BCD
:103A100068A4D999454E7687A0B896605466646AC2
:103A2000757187B5A65938556E83A6AC9486705AC1
:103A3000709EA19C927E8AAD894A6397918CA485E1
:103A40004F5772727B8974647F937C68676878963D
:103A5000A9997C606E929F8A86938888A69F564A11
:103A60008BA98A898E6D535F6E747D716884967997
:103A70005B616F8BA89A7D7886767D9EAF85648A20
:103A8000A79173837D78909E7E6D78695B6B7C6F68
:103A900063739292664B67888B94A7966E728A8E38
:103AA0007C898C8F949A86717E8A9D8F826E7D7BB5
:103AB0006F6A7F815E5E7C82666773819088819188
:103AC0009971729A8E6F7AA7988C7A826C6E869AA8
:103AD00094889B7C606682777094917663746A6444
:103AE0006C809A95786885806E72899AA2947C8998
:103AF0008A7870999D81778B865D5E7B887E8B89C5
:103B00007F8C855A669D8E648AAD825A707F6B6EFB
:103B10007B898E88626686835F72A7AA7D667F84B2
:103B2000686397AB8A6D7D95845F5F9AB08980AD3D
:103B30009A5E548298906268A2944559A77D406E1F
:103B4000A3815E697C88887073999F6E608CA27E69
:103B50006C8D9F7F7089937D788F949391827C8EFA
:103B600087606F979474777B625E797F727E9778B7
:103B700068787D6277A29984939A6D698995888423
:103B80008F8D867E88847D848E76779A9573747CFB
:103B9000777F8774759280566C87756691997C746F
:103BA0008473618792878BA28B6C79827A789087F5
:103BB0007A77847E6D778587828280848A7C788418
:103BC0008C716F909572648F8E69658C8169738337
:103BD0007F6C7386806B778F80687E9B8C717E99FB
:103BE0008968729F8B788696837E7F71758E8673C7
:103BF00085947B6B7783765F738F8A6C78837A6F1B
:103C0000737073869079768A94726B969B867D8D9D
:103C100086989C857E958864738D73689FA666617F
:103C20008A6F577DA08581847A74827E70728A97AC
:103C30007465859C7B739AA166548EAB856A849566
:103C4000887872789197726690A0645392AC7053A2
:103C50007F98806E8C947F7D8E7D6C8F896B78A22F
:103C600085637D967D6A7A7F797875737C8D85749E
:103C70007689856E6B87997E73878976798B868442
:103C8000978F726D85766C81998679796E6E828850
:103C90006B7C91886C7D968760719E916B78A09209
:103CA0007B7B8A7B787F8C847B898D766C817D7031
:103CB000738286848179777C7578827A72858D8526
:103CC0007C7F8485817D7E83898F938581857970D2
:103CD0008594857B828076777E837E78777F7D76FC
:103CE0007F8582808278787F828480787B8B8E87C4
:103CF000898B857C72717C8783858D8D81787475C5
:103D00007C7F82827D7882847F797A84837E7579D4
:103D10007E837A768388827B848D887B7B7F838297
:103D200081898E82767E7B7374818481807D7E7AA8
:103D30007D7E7B797F84797980868076777A7C7BBB
:103D40007B7C7C7D7E7F797B868A807F8A8A83816B
:103D50008588878684817D8185817B828D867E8032
:103D600087877D7A82857C787C7B7974706E6F71B1
:103D70006F70777D79767D878B878791968E8B8D17
:103D80008C8B8D89888788898681828887828280CA
:103D9000807E7B74717474706A6A6E726E6D7277F5
:103DA000787C7F8488898C8D8E8D8C8B8D8B878A97
:103DB0008E8E8C89888A8886817E7F817D77736EDE
:103DC0006F6D68676B6E6B6C6D6D6E73787C7F85E5
:103DD0008D8F8B8F989894979F9F989495958F88A7
:103DE0008784807975726B656164615E6164656901
:103DF0006F707378808281858A8F8F94989B9FA241
:103E00009D969698948C8C8E8A807977736A63617C
:103E10006163626061666A6B6E747C7E7D818B9388
:103E200095969AA0A3A29B969596948E8B8A877F4F
:103E30007873736E655D60635F5B5E66696B7077F8
:103E4000777A828A8D959CA0A0A7ADA79B999F9C0D
:103E5000948C8B8780746C66605753535558595CAB
:103E6000626E76797C8186888C939A9EA0A2A9AE98
:103E7000A2959BA49F9390928978706D62534B4F4B
:103E80004F4A4C545B646E747B81848588939B9EFF
:103E90009FA5ADB4AE9CA0ABA999959A8F7A70708E
:103EA000604D44474944454D58626C757D83848913
:103EB0008C91979CA0A4ABB3B09C9EAAA99B969C06
:103EC000917D7275624C45484940434E575E687615
:103ED000818584888E91999FA1A5B0B7B09CA0AB35
:103EE000A596949C8E7A6C705E4C474B473C434E33
:103EF00059606C778086898C91949CA3A5ABB5B8EA
:103F0000AB9BA4ADA290919584746D6F5744424BC6
:103F1000473C44515B5F6D7A8386898D9399A1A557
:103F2000A6B0BCBDAB9DA8ACA08F94947F6E6A6A0E
:103F300050403F4940394451595E6E7A8181868BA9
:103F40009096A0A7AAB3C0C1AB9EADB1A18F979622
:103F50007E6C6C6C4F3F3F4B3E3644545C60727CD1
:103F6000828185888E949DA2A7B3C1C0B0A6B0B04F
:103F70009F9095917A6B6B65483D3F4941404D5DFF
:103F8000646B7A8187858786888C959BA3AFBEC634
:103F9000B7A1A5AB9A888D927E68646246363A4C8A
:103FA0004C4C5A6C737582878B89867C797D8B9497
:103FB0009EAFC2CFCAAC969A907A75858170646BB9
:103FC0005F474353615C5E6675757A7D827F776E6D
:103FD0006B717D96ADC5D6DDD8BC8674735D5471AA
:103FE0008C847783886B52555F595860727D8380CB
:103FF000766B5F554F5F7594B0D6E9DED8D29A657F
:1040000068685A5E8593878394865A464F595761EC
:104010007385837D705F4F47454F6B92BCE3F9E832
:10402000DADAB266505D544F72979284929A734E68
:10403000505F5C5E6B7B807D715C4A45464A648C58
:10404000B7DBFAF6DCD6CC844243534E5B8AA194AC
:104050008DA08F5F44505A5B6876807D7C684F3FAF
:10406000474A5777A0CAEDFFEAD4D0AE58374D592A
:104070005571A1A993939C74453C53595D6979820C
:10408000837B5F453F4A4F668BB3D7FAFCDFC9C9D4
:1040900097433A575F5C8BB4AE9198905933374E43
:1040A0004E5B697B838A7B59454853547095B9DAD6
:1040B000F9F1D0BCC18D3C43686B689DC3AE8D984F
:1040C0008746273143495C6D7C8794805C474E541A
:1040D00059789CB9D6F3E4C3B5BB7D3C4F74757772
:1040E000ACC5A586937132212F42546B777E8B9994
:1040F000805F4C4F525F83A1B5D0EBDBBCB6BE7581
:10410000385475727EB4BF9984925E2824334A6312
:104110007A79778A987D62535152678CA6B3CDE243
:10412000D3BBB8C1743650707281AFB2958A965CB9
:104130002A272F4A6B837670899F876B54484C6778
:104140008CA4B0C9E2D7BEB7C68838446978799DD7
:10415000A79386956C382E2B486D87786981A59832
:1041600072503F4461889DAAC2E5E6CBBAC19C4526
:10417000355874738CA7A08B89723F3731476B8693
:104180007F6C7CA49D735241445E80909AB4E2EFB0
:10419000D9C0BCB676383D5F6D779BA696847A51C0
:1041A0003C393D5D7C897980A0A77E533E4057769F
:1041B0008992A7D3F1E5C4ADB5A35A344F6C677F9C
:1041C0009F99837E6D48423D4B698A8A8198AD9163
:1041D00060453F4C677F889AC4ECE9CFB4AAAC83B2
:1041E000433A5C6D6D8C9A8E7F7A5C4542415E816C
:1041F00090878FA29C7656444457738290B0DAEB36
:10420000DEC1A7AFA55E314A685F729896827F7162
:104210004B443F4E7698958D9DA5845F4A3D496BF2
:10422000848B9CBAD5D9CEB4A7B79D4E304E5D5580
:104230007C9F998A8B673F3839588BABA29BA39799
:104240006C4A393F6187908F9BB5C7CCC1ADB3C273
:104250008E3B2E4A4D5993AFA49A8B522F2D3A681C
:10426000A6BCABA6A1794935334E809D938D94A809
:10427000B7C1BDB8CACC832A21394164A8C4B7A943
:10428000884220213572BDCFBBAD91582E27335DBA
:1042900095AB9E928F9AA7B4BAC5D9D27B1F152829
:1042A000396BB3CFC7BB8E3917162775CCD7C1B2C0
:1042B0008F52251B265799B9AE9D90929DA8B0C0EC
:1042C000DAD98120101F3469B2D4D4CD9C391414AA
:1042D0001E71D1DCC5BA9B592413174694C0B8A4EB
:1042E000928A92979CAED0E2A23008163363A4D093
:1042F000D5D4B354191A1B5FCAE8CFC0AB732F12C1
:10430000102B7AB9BEAD9B8A85888994B9DEC151DC
:104310000D11335A87BAD0D6CC842A161B47ADE785
:10432000DEC3B0995C1C0B1A57A0BDB8A790837C64
:10433000757992BFD8A13B0D2E57648ABED7DABEDD
:10434000641E172B72C0DDC4ADB6A04711153178BD
:10435000AFB5AAA0948672605F86C2D4933A2A52FF
:1043600062658EC0DBD9A950191C4685B8C3B0B1AF
:10437000BE9033161C4392B6B3A7A59A765041530C
:104380008BCDE0AE5E4157564D77B8DFDDB3682E7A
:104390002944688CA5B2C2C68C371F244683A7AFB8
:1043A000ADB19D6B3E385386C0E0D3955C4B484918
:1043B0006AAAD6D9C08E523132496E99B6BFBB8F28
:1043C00046202D4E6C819BB6BDA06B403B557EB107
:1043D000D7DEB981584B506799C5D0C3A4703B2A2A
:1043E000406A90A8AA9D875F39324B616C86A9B755
:1043F0009E72525067829DB8CEC5976E5E616B8A81
:10440000B3C5BA9F7D553E486B888E8A86837055AA
:10441000495362686F82969784716F777F8796AEF3
:10442000BEAF8D79797B7D8FA4A69C8D77626374F6
:104430007D73696B757A7060617072656172848B6F
:104440008A898986807D8AA4B3A6918C91897676A3
:104450008B969288807A7C7F745F58657476706CD6
:104460007379715F5D6F838E9498968C8079819952
:10447000AAA192959A886E6F8491897C7D858A83A2
:104480007161616C716C676D77746961697A868A34
:104490008F999C958A8388939A969295928477793E
:1044A0007E7A6F6F798388837A75787E7E78716F74
:1044B0006F695F5F6A798489898D929082787F8E37
:1044C00098999DA3A499887C756E67676F7A7E79A9
:1044D00073757B7E7E7C7D7F7C77767D878E8F8CEF
:1044E0008883776657545D6B79899AA5A59A918CD4
:1044F0008883828791969188817C77706A6A6B6CD9
:104500006D737D88909495928A7E71655F5E606917
:1045100076848C8D8B8A8A86807F858D929190910E
:10452000918D857E7B797672737980858888878482
:104530007D767270707073787D808080807F7B76EE
:104540007476797B7C828A90918F8E8E8B87838321
:1045500086898B8A8987847D787777777677797B68
:104560007D7E7F7F7F7E7B787574737275797C7BAF
:104570007B7B7A7875777E868D9194969896908AD3
:10458000878886807A77787B7C7C7D7E81817E7847
:104590007676797B7E7F807F7F7C787575787C7D71
:1045A0007D7D7E80807D7D81878A888585898F90CD
:1045B0008D8A8B8C8981787375787A7A797A7B7C0D
:1045C0007B79797C7F8282817F7D7C7B7B7B7E8017
:1045D000817F7E7E8082817F7F8183817D7B7F85DD
:1045E0008B8D8D8D8C8A847D787778797A7B7C7DB4
:1045F0007D7C7C7D7D7C7B7B7C7E808181838688CD
:1046000087827C7878797A7A7B7D8184837F7C7CD1
:104610007E80808183858685858585837F7D7D7E7F
:104620007E7C7B7B7D8183827F7D7E7F7F7D7B7DAA
:10463000808385858381807F7E7E7D7D7C7B7A7B88
:104640007B7B79797B808587878686888A89868344
:104650008282807D7977787A7D8081817F7E7D7D81
:104660007D7E8080818181817F7C7B7D808384834E
:1046700081807F7E7D7D7D7F7F7D7B797A7C7F835E
:104680008689898783808081848586858483817EED
:104690007C7A7B7D7F807F7D7C7B7C7E808283813A
:1046A0007E7A787878797C7F81807D7977787B8055
:1046B000838383828181807F8083868889888683C3
:1046C000838385868786837F7C7A7A7B7C7E8081E4
:1046D000807C7978797C7E80807F7D7B7A79797A1D
:1046E0007C7E7F7F7E7E7D7E7F82848585848281C5
:1046F0008081828384858585838180818182838393
:1047000082807E7E7E7E7E7F7F7E7D7D7C7B7B7BCE
:104710007C7D7D7D7D7C7C7D7E7F808182838382AC
:1047200082818080808080807F7E7E7E7E7E7F7F93
:104730007F7F80818182838384848484838281805B
:104740008080807F7F7F7F7E7E7D7C7C7E7F80817E
:10475000818180807F7F7F7F7F7E7E7D7D7C7B7B74
:104760007B7C7C7C7B7B7B7C7D7F80818282838267
:1047700082828385868788888785848382828282F5
:1047800081807F7E7D7D7C7C7D7C7B7B7B7A7A7B60
:104790007C7D7D7D7D7C7C7C7D7E80818282828231
:1047A00081818081818281818080807F7F80808003
:1047B00080808080808182838483828181807F7FEA
:1047C00080818181807F7E7E7D7D7D7E7E7E7E7DFF
:1047D0007E7E7E7F7F7F7F7F7F7F7F8080818282E2
:1047E00081807F7E7D7C7C7D7F80808080818181D7
:1047F0008182828281808080808080808180807FB1
:104800007F7F8080818282818180807F7F7E7E7EAB
:104810007E7D7D7D7D7D7E7F7F7F7F7E7E7E7E7EB9
:104820007F7F80808080808181828282828281817C
:10483000818181818181818080807F7F7F7F807F76
:104840007F7E7E7E7E7D7D7D7C7C7D7D7D7E7E7F90
:104850008081818181818181818181818181818149
:104860008181818181818180807F7F7F7F7E7E7D4C
:104870007D7D7D7D7D7D7E7E7F7F7F7F7F7F7F7F56
:104880007F7F7F7F7F80808181828283838282821B
:104890008281818180807F7F7F7F7F7E7E7E7E7E22
:1048A0007E7E7E7E7F7F7F7E7E7E7E7E7E7F7F8021
:1048B0008080818181818181818080807F808080F2
:1048C000818181808080808080808080807F7F7EE9
:1048D0007E7E7E7E7F7F7F7F7F80808181818181E0
:1048E00080807F7F7F8080818080808080808080CA
:1048F0008080807F7F7E7E7E7E7F7F7F7E7E7F7FCB
:1049000080808181818180807F7F7F7F8080807FA8
:104910007F7F7F808081818180807F7F7F7E7E7F9F
:104920007F7F7F7E7F7F80808181818080807F7F8D
:104930007F7F7F7F7F7F7E7E7E7E7F7F8080808087
:104940008080807F7F7F7F80808080808081818168
:10495000818080807F7F7F7F7F7F7F7F7E7E7E7E66
:104960007F7F8080808080808080808080807F7F4B
:104970007F7F808080808080808080808080807F3A
:104980007F7F7E7E7F7F7F7F7F7F7F7F8080808035
:104990008080808080808080808180808080808016
:1049A000808080807F7F7F7F7E7E7E7E7F7F7F7F17
:1049B0007F7E7E80817F7F8082807F7F7F7F7F7F01
:1049C0007F7F7F7E7F7F81807E8081827F808282E9
:1049D0007F7E807F7E7E7F80807F7E80817F7E80E5
:1049E0008281808080817F7F7F7E7F7E7D7D7E7FD4
:1049F0007F7E7F818180808181807E7E80807F81BB
:104A00007F7F80807F7F7F80818080817F7F8080AB
:104A10007F7F7F7F7F7F7F817F7E807F7F7D7D80A7
:104A20007F7E808080807F80818081817E80807F8A
:104A30007F808080807F81807E818281807F818273
:104A40007F81817F807E80807D7F7E7E7F7C7F8076
:104A50007C7F807F80807E7E807F7F807D7F807D69
:104A6000807F7E7F7D7F817D80828283828284833E
:104A700082848485848287838184807F7F7E7C7B1F
:104A80007A7A79797A7978787B797A7B7A7F7D7A84
:104A90007E7D7D80818083878786868A8E8A878DCA
:104AA0008F8D8B8B93938B8887857E73706E6B69EC
:104AB0006668696A6D7074767475777777777B7FCF
:104AC0008083868C8F92979B9A9BA09F9B908D94BE
:104AD0008A8382787B7B6E70746B6D6F686C6A649E
:104AE00068686A6E6C6D7373737A7C7F8B8D929E2F
:104AF000A4A7B2B4A8B4A98C907F727765667369D5
:104B00006E7B77797D75736F6264675D666C666FC7
:104B100072717B7B7D8B8C909EA0A5B1B8B5AFA246
:104B2000918F826F6E6A6A706E76838181817D79E2
:104B30006A5F615F585D6365696E727B84858D977E
:104B40009CA3ABAEB1BAAB918E89766B676C757472
:104B5000798A908E8B858174615A5551595A5B6858
:104B60006F71787D868E8F9BA8A7AEB1B0BB92790E
:104B70008D705C605B717D7A92A79B95988A77684F
:104B800059514D47545C5A6D77707B8889909CAB26
:104B9000B5B5B0B9C1876E8A68505454757975A19E
:104BA000B29D9C9B8B765C585D494B655C5C7372D7
:104BB00070767C8C8F8CA9BDB6B5BAC79E657D75A5
:104BC0004B4A536E817A94B7A792968F7259565674
:104BD0004E4E6168626E756D707A859099B0C3CAE9
:104BE000BEC8C7796E7F514140567E7B86B5BA9F5D
:104BF0009A988364545551495569625F6D6D687028
:104C0000788B9BA7BCD3CFCAD092738357414047C0
:104C10006F7B7FA8BAA6A09B89725D56564E4D61E8
:104C2000635C6766606A717D8F9EB7CDDCD3D4B557
:104C3000777F69393B415F7B829FB9B0A39E8C7AB5
:104C4000685854575058695858635C65727B95ADE5
:104C5000B1D2E8CFBB907F7D46364955677C97AD92
:104C6000AC9FA09C857470665F5C6163555356551C
:104C70005C697C93A8B4D6E9D4BB8E847F4737495E
:104C80005764708CA6A1959BA08C747370615A5C5C
:104C9000645B4C596963708FA5ABBBDFDFC29A8A36
:104CA0008F623B48585D5F7599A09097A6967A747D
:104CB000766556585E5F5658676B74899DA6B4D169
:104CC000D9C7A7969A72444B57535266879A9394C2
:104CD000A8A1847975614F4B515C595D70778495BB
:104CE000A1A3ADC7CFBD9F9CA27953565C54495632
:104CF000798D8892ADA98E837C614B44444E4F5F81
:104D0000777D96ADADAEB7CACC9F859F966355674C
:104D1000705B4D68847E7992A19483827C5D4D5452
:104D200051484C6374859BAFB9C2DBDBAF8D908E6D
:104D300065435A71665C72908B7B869486716B6E4C
:104D40005E525B5B545562707E95AEBED8EAE2BDA2
:104D5000969B804E3C5263595C819F928A9A9D7DBE
:104D600064625B474450544A56677085A3C0D2E6DC
:104D7000EDE0A48F99714647686B55639198828BDB
:104D80009E937A6C675F4B424A3B374B5C709AC08C
:104D9000E6F6F3E1A39C8C584357736F637E9C90B7
:104DA0007F8890826E646B65585F584244484F64B8
:104DB00087B3E9F7EED0ACA97F4A4D6869626C8988
:104DC00098908A908F7B635D5D5259604D48555F26
:104DD00063759BD3F7EACCACB19455516B726A6999
:104DE0007D918D828A958970696452505B4E3E46F2
:104DF00057607090CCFCF2CDACBCA0514865716896
:104E0000697E928D86929D896F71674C4F5F523D8E
:104E10004C615F6587C4F4EECAB7C69F585562629D
:104E20005D627280888EA0AE977C7C633D48543E64
:104E3000385564687693D0F4E4BFBDCC8F5765686D
:104E400057515C686F7B8CA8B29C908E643E4B4837
:104E50002932555C607BA5DBEDDCC8D2D5835C775D
:104E6000694B4F5B575F758AA5A79B9F9262475B13
:104E7000491B3C63474F80A5D5E4D1D6E8C487865B
:104E80007D5A5B5D484A636C7E9D9C959C866967F4
:104E90005B413D494D4B5877A7D3D2CDE2E0B19469
:104EA000987A575A5845486374829299958B8177BE
:104EB00070644C47524E496388A4C4C2C7DFCBAD6F
:104EC000B7A7705F6341314F575D798388928788B8
:104ED0009178656C605358698098A59AB2CAAEAD56
:104EE000C4AB8D8A795A595343535A4F5B6B6677DB
:104EF000918880938E7681938E9994869F9887A0CF
:104F0000A98F909E7F71836C586A62484E50475DAE
:104F10006E6C81938C96AEB1B5AE9AA190767E7D83
:104F2000727D8980848C7F787B6D65604A4A5B5294
:104F30005C7F7F7E9CA7A8BDB2A3B0997F857A666F
:104F4000717A6F7D89797B857672745B525C51537F
:104F50006D747B949CA7BCB0A8B2A2919487737720
:104F6000786F7C8779797D6B6868504953454A67CB
:104F70006A7497A3AEC7C4B8C2B6A0A3957D7E736A
:104F800062707561686D5B60645151594C5266691D
:104F900075909EB1C8C6C4CBBBABAA917B7C695946
:104FA0006A695E6D6E616E6E5A61614F59645E6EC4
:104FB0008088A0B5B3B9C5B7B1B6A0918E76697136
:104FC000685F6C69616D685D6461585C5D5D646DAE
:104FD000798CA0ABB3BDC3BCBAB6A49A8C736F6F07
:104FE0006060655E60685C60685F61666162697090
:104FF0007B909DA4B0B3B5B8B7B1AAA08D80796FEE
:105000006865605D5E59586263686C6B696D6D724E
:10501000808C9293A1A6A8B1B3ACA9A5958C887AEF
:1050200073726962615C565C5D5F646364696C7332
:1050300081889096939EA4A2ABB0A6A4A2948D8BD7
:10504000817A776C64625B5A605E61696369706CD7
:10505000737B7D848B838C97959EABA7A6ACA29C1B
:105060009D918783766A68605A5E5E5E66686A7440
:10507000717277747776727881838E99A2AAAFB2B3
:10508000B2ACA3988C7E71685E59595A61676B7691
:105090007F7F81817C7974706B6B6F717D8A929850
:1050A000A3A7A8A5A0988E887D75737173787C815D
:1050B0008282817D797A6A5E645A5962626C777FF6
:1050C0008C8B929B90929A9292938E8E94949192C2
:1050D000938D8B88817B746C65605D5A5B636770B0
:1050E000747A827F82858480878482868A8A8F9779
:1050F000979C9C9895928C88817975706B6A6B6D82
:10510000707372747778777A7A7D818183818584F0
:10511000878B89888A878585878683817C7D7B7953
:10512000797B7A7B7D7C7E807F808383848484838B
:10513000838181848280817E7E7D7D7A7877767599
:1051400073747677797C7E818486898B8A8B8B8A4F
:105150008A888787878383837F7D7E7B787877754E
:105160007575747577797C7D7E7F82818485838473
:1051700084848185838282828385858286827F8002
:10518000837C7B817B797C817B7E807E7B7C847D44
:105190007F69877E7D935FA77169A96799768096FD
:1051A0005F9B757698618685728A7288749398562B
:1051B000AD7775964B998363966D6D8F79889769F6
:1051C000878A75857B8176818A7B7F7973928070EF
:1051D00097858F76729F6B93825B8F627E876494D4
:1051E000788E9E589783679B66888165996F848BBC
:1051F0007594807F837F7E7F83857B7A7E6F7E7EC2
:10520000728380858A87868B8F88787C7B6F766AAD
:1052100075757A8782868585888A82867C7F867284
:105220008A75818B748E7C7C847B7E867A7F827586
:10523000847186837994788A7F7E8E707D7E6D7D81
:105240007468856D83927C9B878D9484918983801B
:10525000787581747E817988758480777D787D6D9D
:105260007C71657D6F758576848F79968F859F8833
:10527000978B85947C97838598728C7C6F84676EFE
:10528000725D6C6D5D7973698274868671888A8AB5
:105290008F8C948D8B988E97938A93848D857A8644
:1052A000747877677368606B656F6A6778697B7B12
:1052B0007495778AA581A3A096ABA19F97978A82C0
:1052C0008371776B636A5D63685C6972627478731B
:1052D0007D7C8086928997A189ABA197B48F999E96
:1052E0007D8D7B6A776464665E626265696B6D71F1
:1052F0006F7478797A879085A6968BBE949CBE8DC4
:10530000A6A98096866D7F655E674C555E4E5C6291
:105310005D62716B6D8478909793AC99B8B5A5C9AF
:10532000ABA9B0978E84796D605D51444C4A434F70
:105330005755616F6D78889098A2B2A4A7C5ABABA2
:10534000C3A4A0AA8C81806C615E544B474E4E4929
:105350005E625A6E74717F868E99A1A99DB0B99DC7
:10536000B9B697AEA2828E7F696D62574E4B4D459E
:105370004F5A565C6F6D7081868D99AC9CA1C4A408
:10538000ACCBA6A5BB9387956F676E554E4D484431
:10539000454F5651637166778C8D98B4AB9AC9B8F6
:1053A0009CCCB594B89E798F7A5D6B5F4B4D4A4526
:1053B00048505A58627570748D9791B1B193C3BDBE
:1053C00096C2BA90AAA376827D5D64634F4B4D4826
:1053D0004C515C5E607577738C9E94AEB398C0BC84
:1053E0009ABCB590A49F767E7D5E6266504B4F4717
:1053F00049525A5A607374728C9E96ADB09DBFBA72
:10540000A0BAB695A2A37B7D8061606A5347534AD8
:1054100045555C5460726E6E899A93ABAE9DBCBC70
:10542000A3B7BA9B9DA48478806A5D6759474F4DA6
:1054300045525E575F71716F859A97A7ACA1BBBB50
:10544000A7B7B99D9BA084757A685B63594B505090
:105450004A54615B6172737085999AABACA0BABB18
:10546000A3B1B89B939C846F756A5B635E4E535582
:105470004E5865606172766F7D9496A3AA9BB0C00A
:10548000A6A9BCA4939D8D7376705F63614F51563E
:105490004D55635F5E6C746F7689929EAE9FA3C319
:1054A000B5A3BAB59A9E9A7E7673605D60504951F5
:1054B0004D4B5B625C66767775828F98AAAB9AB229
:1054C000C4AAABBDAD9B9C917D73675C5C5447499E
:1054D0004E484D6064616F7F7E7C87939EA9A49C3B
:1054E000AFBAABABB5ADA0998F8174665B59514330
:1054F000454C494C5E6969718286818592A1A69E60
:1055000099A8B6ACA8B1B1A69A90857867585652BA
:105510004541494E515F697078818686838A98A09B
:105520009B929DB4B2A5ADBAAF9B948E806958573B
:1055300055463B455152586872787D838583848FE8
:105540009DA09194B2B8A8AAB9B7A4948D857258B9
:1055500050574E3D3F50595D656F7D8380818381FB
:1055600084919A938B9FB4B0A9B1BAB29F8F867D74
:10557000685350554D4045576467687383827A7706
:105580007A818A8E908D96ACB2B0B6BBB7AF9F8A47
:105590007E745E4F505247434E5D6A6D6B758180DD
:1055A000756F76868D8C8A90A7B6B1B3BEC0B7A84A
:1055B00095867C6A55505149414553626D6D6D77B2
:1055C000817C6F6D7A8A8F8C8A9AB5BAB3B9C3C25F
:1055D000B39D8A80755F4F4D4D4642495A6E766F36
:1055E0006E7B837667697B8A8E8789A4BDBDB6BDD5
:1055F000C7C6B3978480745A4846494541495E738B
:10560000756B6F7C7E70646B809090878FB0C6C323
:10561000BCBFC8C6B1907B776C53413E4244474EF5
:10562000607578706F757870676D8295978D98B892
:10563000CCCAC1BFC5C4AC87706A604E3E3639451E
:105640005055657477747472706C6C7688999A95FD
:10565000A6C2CECDC7C3C2BAA07C695E51453C3458
:10566000364555626F74727679746B676F82969E59
:105670009599B7CED1CAC3C2C2B18B6C6055483FB1
:1056800036313B4D5C6A7676747777726B687287D9
:105690009CA299A1BFD5D7CEC3BFBBA781635248F7
:1056A000413A312D3B5164727774747A7B746B6C20
:1056B0007B96ABA59AABC9DAD9C9B8B4B199735581
:1056C000433D3F3E3330405972807B7272777A742B
:1056D00068687D9BAFA8A1B1CCDEDCCBB7ACA38E54
:1056E0006D503D363A3D3836435A738481746E733B
:1056F00078757071819FB1AEADBACBD9DCCBB4A255
:105700009079634E3930353B3E454E5E7687847ADC
:10571000726F7175757A8A9FABAFB8C3CED6D3C49A
:10572000B09B8169584A3C353539414D59677A8378
:10573000817A74706F72788397A8ACB0BCC8D2D5E8
:10574000CCB7A28D755F524338373A3F4A566070E6
:1057500080858079716D6F757D8B9EA8ACB5C0C951
:10576000D0D0C2AE9A8369594D423C3C3D45525E11
:105770006A7880807B746D696B717F92A5ABAEB8DF
:10578000C2CCD2CEBDA8927A65574B403B3C404B31
:105790005964707B7F7D79716A6769728297A8AD61
:1057A000B0B7C0C9CFCBBBA48D7562574D443F3F46
:1057B000424E5D6A767E7D78746E69676972849CFC
:1057C000AEB1B2B6BCC5CCC9B8A188705E554E4763
:1057D00043424550606E7A7F7B746E6A67686B7374
:1057E000849DB0B5B7B9BBC2C9C8B9A1886E5B52B8
:1057F0004D484745464E5D6C7A8079706B686769A5
:105800006C73849EB3BBBDBBBABFC7C8BAA2876C5A
:1058100059514D4A4948484F5B6978807B726C67A3
:1058200066696D74839BB2BDBDBBB9BBC2C5BAA46A
:10583000896E58504E4D4E4D4C505B69777E7A7252
:105840006B6563666B738298AFBBBEBCB9B9BEC3F0
:10585000BBA88F735B51505153534F4F5864717AAB
:105860007870696260636A738197AEBDC1C0BCBA6B
:10587000BDC1BCAC95795E4F4D4F5354504E545EF4
:105880006B7678736D655F6269748296ADBEC4C3D2
:10589000BFBABBBEBAAD987C604F4A4D5154514F10
:1058A000525B677379767068626168728195ADBE8C
:1058B000C4C3BFBABABCBAAF9B8164504A4C5054FF
:1058C000534F515A64707879736C6461656E7C9142
:1058D000A9BCC3C4C0BAB8BABBB29F8467524A4B12
:1058E00050555551535A63707A7C78706761626A7B
:1058F000798DA5B8C0C0BEB9B5B7B9B2A0886B5490
:105900004A4A4E545652535962707C807D756B637F
:10591000636A798DA4B6C0C0BDB9B5B6B8B2A18866
:105920006C5348474A5053515157616E7B8380777F
:105930006D656269788DA4B8C1C1BFBAB7B9BBB48F
:10594000A48B6C534744474F514F50555E6D7C823A
:1059500081796D636166778DA5B8C0BFBBB8B7BAF2
:10596000BCB6A3896B524745495054525257617097
:105970007F86847B6D615E65778FA7B7BCBCB8B549
:10598000B6BBBCB4A185665045444A5153525359E5
:1059900064748288867B6B605D667A92A9B8BDBBB1
:1059A000B8B6B8BCBDB29D80614B43444A51545314
:1059B000545A667784898579685D5D677B95ACB953
:1059C000BCBCB9B7BABFBEB29C7C5D4942434C5324
:1059D0005452545A687A86898375645B5C677D99F2
:1059E000AFB9BCBBB8B8BDC1BEB0987758463F434D
:1059F0004D555655565D6C7D898A8372625A5D6C31
:105A0000849FB2B9BAB9B6B7BDC1BBAB906E5242B2
:105A10003E4550585857585E6D7F898A81705F5A4D
:105A200060738EA8B7BAB9B6B4B7BEBFB7A487665D
:105A30004D404049555C5C5959606F8089897E6C46
:105A40005B57607692ABB7B9B7B4B4B9BFBFB39D7B
:105A50007E5F4A4246525E625F5C5C6373828A8705
:105A60007A665756647C99ADB3B2AEACAFB6BCB9EA
:105A7000AB9273584A47505E686865606069798583
:105A80008B877764585B6D87A0ADAFABA5A3A9B238
:105A9000B6B09E8367534B4E5B686E6D6964656FED
:105AA0007C868A8272625C637892A6ADADA7A1A162
:105AB000A6ADAEA591765E4F4B54637074726B6861
:105AC0006B757F88887F6F62606C8299A7ACA8A095
:105AD0009B9CA1A6A599846B584F515F6E777874F3
